:1000000036C05AC059C058C057C056C055C054C059
:1000100053C082C451C050C04FC04EC04DC04CC030
:100020004BC0C4C449C00000000038003500320095
:10003000040404040404040402020202020203038E
:100040000303030301020408102040800102040896
:100050001020010204081020000000000000000031
:10006000000304060000000000000000EB0511245E
:100070001FBECFE5D4E0DEBFCDBF10E0A0E6B0E00C
:10008000E0E3F7E102C005900D92A23AB107D9F77B
:1000900021E0A2EAB0E001C01D92A638B207E1F764
:1000A00010E0C7E3D0E003C02197FE0139DBC6337F
:1000B000D107D1F7B1D53ACBA3CF08950895AF9228
:1000C000BF92CF92DF92EF92FF920F931F93CF9345
:1000D000DF936C017B018B01040F151FEB015E01A7
:1000E000AE18BF08C017D10759F06991D601ED913C
:1000F000FC910190F081E02DC6010995892B79F7DB
:10010000C501DF91CF911F910F91FF90EF90DF908C
:10011000CF90BF90AF90089590E0FC01E85AFF4F58
:100120003491FC01EC5BFF4F2491FC01E05DFF4F3B
:10013000E491EE23E1F0332349F03430C9F0363056
:10014000D1F0333019F48FB58F778FBDF0E0EE0F1B
:10015000FF1FEA5DFF4FA591B4918FB7F89461112D
:100160000EC09C91E22FE095E923EC938FBF089598
:100170008FB58F7DEACF85B58F7D85BDE7CFEC91BB
:10018000E22BF3CF3FB7F8948091590190915A0137
:10019000A0915B01B0915C0122B708B600FE05C0DA
:1001A0002F3F19F00196A11DB11D3FBFBA2FA92FF6
:1001B000982F8827BC01CD01620F711D811D911DF3
:1001C00042E0660F771F881F991F4A95D1F708955F
:1001D0008F929F92AF92BF92CF92DF92EF92FF9257
:1001E0004B015C01CFDF6B017C01CCDF6C197D0919
:1001F0008E099F09683E734081059105B0F321E0A7
:10020000821A9108A108B10888EEC80E83E0D81EB2
:10021000E11CF11C81149104A104B10431F7FF9099
:10022000EF90DF90CF90BF90AF909F908F90089508
:1002300020910A01260F3327331F21323105ECF4B8
:1002400020912E01FC0190E080E0243069F082E0F2
:100250000895A0910A012191AC0146515F4FA40F6E
:10026000B52FB11D2C930196861798F380910A0142
:10027000680F60930A0180E0089581E0089510926C
:100280002E0181E08093300110922F0161E082E124
:1002900043DF61E083E140DF0898099888E480B992
:1002A00085E486BF0895CF93DF9391E09093E900B2
:1002B000882371F0C0B1D2B186B78A7B86BF60E077
:1002C00082E12ADF60E083E127DFD9DFD2B9C0B95C
:1002D000DF91CF9108950895E091640180916301C9
:1002E000E81730F4F0E0EC53FF4F808190E0089580
:1002F0008FEF9FEF089590916401809163012FEF3C
:100300003FEF981748F4E92FF0E0EC53FF4F2081BE
:1003100030E09F5F90936401C9010895809163016B
:1003200090916401891B990B0895CF92DF92EF920F
:10033000FF920F931F93CF93DF937C01CB018A0130
:100340002091C300222389F0EB016B01C40ED51E5E
:10035000CC15DD0561F06991D701ED91FC9101901B
:10036000F081E02DC7010995F3CF642F61DFC8014B
:10037000DF91CF911F910F91FF90EF90DF90CF9081
:100380000895CF93DF931F92CDB7DEB76983209195
:10039000C3002223F9F020916101203258F021E0BE
:1003A00030E0FC013383228390E080E00F90DF9106
:1003B000CF91089580916201E82FF0E0ED55FF4F55
:1003C000998190838F5F809362018093610181E0C6
:1003D00090E0ECCF61E0CE0101962ADFF8CFCF921A
:1003E000DF92EF92FF920F931F93CF93DF93FC0165
:1003F000C48121E02093C300C093A2001092620147
:10040000109261018485682B8DE691E0BADFD0916E
:100410006101D13208F089C0B5DE6B017C018091A9
:100420002E0181115FC082E080932E0181E08093D4
:1004300030018FEF80932D0110925201D093510122
:10044000A3EAB0E0E1E3F1E080E0D8137DC01092D0
:10045000530180915301CC0FC82BC093530180915D
:100460002F01813009F074C010922F018BDE6B01D7
:100470007C018091530183B98091E5009091E60061
:10048000A091E700B091E800892B8A2B8B2B91F08B
:1004900079DE0091E5001091E6002091E7003091AF
:1004A000E8006C197D098E099F09061717072807B0
:1004B0003907C0F106B603FCDCCF85EC86BF62DEEF
:1004C0006B017C0180912E01823009F443C0809140
:1004D0002D018F3F51F180912D01803231F18091BA
:1004E0002D0123C08091E5009091E600A091E700E6
:1004F000B091E800892B8A2B8B2B09F490CF42DE38
:100500000091E5001091E6002091E7003091E800AD
:100510006C197D098E099F090617170728073907E7
:1005200008F07DCF8091E400BEDE1092620110924F
:1005300061011092C300DF91CF911F910F91FF9045
:10054000EF90DF90CF9008959D9191938F5F7DCF35
:1005500085EEB4CF8091E5009091E600A091E70090
:10056000B091E800892B8A2B8B2B09F4ABCF0ADEE4
:100570000091E5001091E6002091E7003091E8003D
:100580006C197D098E099F09061717072807390777
:1005900008F098CFC7CF089590E080E00895FC015F
:1005A00001900020E9F73197AF01481B590BBC01BE
:1005B00089E791E084CD8F929F92AF92BF920F9383
:1005C0001F93CF93DF93CDB7DEB7A1970FB6F89403
:1005D000DEBF0FBECDBF19A2423008F44AE08E0143
:1005E0000F5D1F4F842E912CB12CA12CA5019401DD
:1005F00075D8E62FB901CA01EA30ECF4E05DD80104
:10060000EE938D01232B242B252B81F790E080E0A6
:10061000109711F0CD01C3DFA1960FB6F894DEBF9D
:100620000FBECDBFDF91CF911F910F91BF90AF90C3
:100630009F908F900895E95CE2CF0F931F93CF9323
:100640008C01C62FCCDE6C2F6460C801C8DE6C2F15
:100650006B7FC801C4DE83EC90E00197F1F7CF9186
:100660001F910F9108950F931F93CF93DF938C01E8
:10067000D62FC42F607F642BE0DF80E1D89FB001CC
:1006800011246C2BC801DF91CF911F910F91D5CF11
:10069000CF93DF93CDB7DEB728970FB6F894DEBFC0
:1006A0000FBECDBF98E0E0E6F0E0DE0111960190CC
:1006B0000D929A95E1F790918101981708F48FEFC8
:1006C00090E0880F991F21E030E02C0F3D1F820F32
:1006D000931FFC016081606840E089E791E0289603
:1006E0000FB6F894DEBF0FBECDBFDF91CF91BBCF69
:1006F00040E061E089E791E0B6DF8BE39FE101979D
:10070000F1F780918201882311F080E0C1CF089534
:1007100041E0A9DF81E090E008954F925F926F92EF
:100720007F928F929F92AF92BF92CF92DF92EF9281
:10073000FF920F931F93CF936B017C01742EAC013A
:100740009B01C8D7882391F086E890E0CF911F9154
:100750000F91FF90EF90DF90CF90BF90AF909F9060
:100760008F907F906F905F904F9019CF4601570107
:10077000E894B7F82FEF3FEF4FE75FE7C501B4010B
:10078000A9D781110CC02FEF3FEF4FE75FE7C501FD
:10079000B401EFD518161CF48AE890E0D7CF2FEFFC
:1007A0003FEF4FE75FE4C701B6012DD718161CF4E1
:1007B0008EE890E0CBCF2FEF3FEF4FE75FECC70124
:1007C000B601D7D587FDF4CF20E030E0A901C701FD
:1007D000B601CFD510E000E087FF0BC041E06DE22D
:1007E00089E791E040DFF7FAF094F7F8F09401E040
:1007F00010E0C0E060E070E080E09FE37C1639F03C
:1008000020E030E040E251E4B8D5CF5FF7CFA70158
:1008100096014BD54B015C0118D62B013C014AE0F7
:10082000CADE080F191FCC2389F1C301B20139D6E2
:100830009B01AC01C501B40137D54B015C0141E01E
:100840006EE289E791E00FDF0F5F1F4FC150F0F0BC
:1008500020E030E040E251E4C501B401D8D62B01DC
:100860003C01F3D54B01B12CA12C4AE0C501B401E8
:10087000A2DE080F191FC501B40113D69B01AC01FC
:10088000C301B20111D54B015C01E0CFC801CF918A
:100890001F910F91FF90EF90DF90CF90BF90AF909E
:1008A0009F908F907F906F905F904F90089585ED0F
:1008B00086BF8091E5009091E600A091E700B0919D
:1008C000E8000796A11DB11D23E0B695A795979561
:1008D00087952A95D1F706B604FC03C010922E0125
:1008E00008954091E5005091E6006091E700709115
:1008F000E800452B462B472B71F30097A105B10566
:1009000041F025E32A95F1F700000197A109B1090B
:10091000E2CF8091E400C7CC1F920F920FB60F92E6
:1009200011242F933F938F939F93AF93BF93809105
:10093000550190915601A0915701B0915801309105
:10094000540123E0230F2D3758F50196A11DB11D49
:10095000209354018093550190935601A093570121
:10096000B09358018091590190915A01A0915B0177
:10097000B0915C010196A11DB11D80935901909326
:100980005A01A0935B01B0935C01BF91AF919F911D
:100990008F913F912F910F900FBE0F901F90189540
:1009A00026E8230F0296A11DB11DD2CF1F920F92F0
:1009B0000FB60F9211242F933F934F935F936F9332
:1009C0007F938F939F93AF93BF93EF93FF9381B1E7
:1009D000887F803609F449C0E8F5883209F4A2C05E
:1009E00018F5803109F498C0B8F4882309F4F0C0F0
:1009F000883009F491C0FF91EF91BF91AF919F9121
:100A00008F917F916F915F914F913F912F910F90B7
:100A10000FBE0F901F901895883109F483C0803263
:100A200051F780932D0114C0803409F497C040F42D
:100A30008033B9F38833F9F680932D0185ECA9C092
:100A4000803509F480C0883509F490C0883499F65F
:100A50002EDFD1CF883909F487C030F5883729F0E7
:100A600050F4883611F0803731F683E080932E0100
:100A700010922C0154C0883809F476C0803919F0DE
:100A8000803809F0B8CF80912C01803208F06CC01A
:100A9000E0912C0181E08E0F80932C0183B1F0E076
:100AA000E45FFE4F80833BC0803B39F0E0F4803A46
:100AB00009F473C0883A09F09ECF84E080932E0138
:100AC00010920B0110920A01E0915F01F091600118
:100AD000099580910A0181110FC081E080930A017C
:100AE0001092EA0009C0803C09F4A8CF883C09F4C0
:100AF000A5CF883B09F07FCFE0910B0181E08E0FFD
:100B000080930B01F0E0E651FF4F808183B9909113
:100B10000B0180910A0126C08091530183B985ECB5
:100B200086BF69CF9091520180915101981748F585
:100B3000E091520181E08E0F80935201F0E0EF5C72
:100B4000FE4F8081EBCFE091520181E08E0F8093C8
:100B5000520183B1F0E0EF5CFE4F8083909152012F
:100B6000809151019817D8F285E8DACFE0915201CF
:100B700081E08E0F8093520183B1F0E0EF5CFE4F75
:100B8000808380913001811163CF81E080932F01B8
:100B900084EA86BF10922E012ECF85EC86BF10927C
:100BA0002E0180912C01803230F4E0912C01F0E094
:100BB000E45FFE4F108260912C0170E0E0915D01D6
:100BC000F0915E018CE091E0099510922C0113CF19
:100BD00010922D013DCFEDE6F1E01382128288EEF6
:100BE00093E0A0E0B0E084839583A683B7838CE68E
:100BF00090E091838083E9E7F1E0138212828EE72F
:100C000090E091838083118687E2848380E18287EC
:100C100082E0838714860895789483B7826083BFC7
:100C200083B7816083BF89B7816089BF1EBC8EB5E1
:100C300082608EBD8EB581608EBD8FB581608FBDA7
:100C400085B5846085BD85B5806485BD329A319A4D
:100C5000309A379A1AB81092640110926301109278
:100C60006201109261010BDB8DE590E090936001D1
:100C700080935F018EE590E090935E0180935D012B
:100C800010927E0180918401823018F098E0909358
:100C90007E018093810162E370E080E090E098DA69
:100CA0006091850189E791E09ADB68EE73E080E06E
:100CB00090E08EDA60E389E791E0BFDCCBE4D6E434
:100CC000CE010197F1F760E389E791E0B6DC219767
:100CD000F1F760E389E791E0B0DC83E592E001970A
:100CE000F1F760E289E791E0A8DC60917E01606243
:100CF00040E089E791E0B7DC84E080937F0140E049
:100D00006CE089E791E0AFDCF3DC82E08093800166
:100D100040E066E089E791E0A6DC40E062E089E738
:100D200091E0A1DC8BE39FE10197F1F788E08093EC
:100D3000850160E089E791E052DBDADC80E0A8DC45
:100D4000812C912C80E7A82E82E4B82E412C512CC6
:100D500090E2692E92E4792E83E487B9369A369927
:100D6000FECF94B185B1892798278927009709F488
:100D7000EEC025E0289FB001299F700D1124072E99
:100D8000000C880B990B8FD320E030E040E85AE349
:100D90003ED46B017C01AC019B0160E070E080EA15
:100DA00090E482D29B01AC01C701B601E6D220E0FB
:100DB00030E04EEB53E42BD420E030E040EA50E446
:100DC00073D26B017C01C0926901D0926A01E092FA
:100DD0006B01F0926C0123E333E34DE152E413D451
:100DE0001816B4F42FE832EC45E252E4C701B6011C
:100DF000C0D287FF0DC080E090E0A8E4B2EC809301
:100E0000650190936601A0936701B093680176C075
:100E10002FE832EC45E252E4C701B601F4D387FD76
:100E20000EC02CEE31E54EE252E4C701B601A1D26C
:100E300087FF05C080E090E0A0E2B2ECE0CF2CEEAE
:100E400031E54EE252E4C701B601DDD387FD0EC0A5
:100E500028E431EE46E352E4C701B6018AD287FFA7
:100E600005C080E090E0A0EFB1ECC9CF28E431EEFE
:100E700046E352E4C701B601C6D387FD0EC024EA9B
:100E800030E74FE352E4C701B60173D287FF05C0D4
:100E900080E090E0A0EAB1ECB2CF24EA30E74FE383
:100EA00052E4C701B601AFD387FD0EC020E030E0A9
:100EB00048E452E4C701B6015CD287FF05C080E078
:100EC00090E0A0E2B1EC9BCF20E030E048E452E4B7
:100ED000C701B60198D387FD41C02CE53FE840E546
:100EE00052E4C701B60145D287FF38C010926501B0
:100EF000109266011092670110926801F9DB80E0A0
:100F0000C7DB82E990E04BDB6091690170916A0177
:100F100080916B0190916C0142E0FFDB81E0B8DBD6
:100F20008AE990E03CDB60916501709166018091F7
:100F300067019091680142E0F0DB41E06FED89E7E5
:100F400091E091DB60ED77E080E090E041D980E0D6
:100F500090E0892B09F400CF53D8F2CE2CE53FE87E
:100F600040E552E4C701B6014ED387FD0EC028EB21
:100F70003EE149E552E4C701B601FBD187FF05C058
:100F800080E090E0A0E2B1E43ACF28EB3EE149E511
:100F900052E4C701B60137D387FD0EC024E13EEA13
:100FA00041E652E4C701B601E4D187FF05C080E005
:100FB00090E0A0EAB1E423CF24E13EEA41E652E426
:100FC000C701B60120D387FD0EC021E73DE34AE605
:100FD00052E4C701B601CDD187FF05C080E090E0A3
:100FE000A0EFB1E40CCF21E73DE34AE652E4C701AC
:100FF000B60109D387FD12C02DEC3CEC42E752E468
:10100000C701B601B6D187FF09C040926501509271
:101010006601609267017092680170CF2DEC3CEC24
:1010200042E752E4C701B601EED287FD0EC029E2C5
:101030003CE54BE752E4C701B6019BD187FF05C0F1
:1010400080E090E0A8E4B2E4DACE29E23CE54BE7A8
:1010500052E4C701B601D7D287FD12C023EC35EFA9
:1010600041E852E4C701B60184D187FF09C08092EC
:10107000650190926601A0926701B09268013ECF2F
:1010800023EC35EF41E852E4C701B601BCD287FD3D
:101090000EC021E73DE346E852E4C701B60169D13D
:1010A00087FF05C080E090E0ACE8B2E4A8CE21E77D
:1010B0003DE346E852E4C701B601A5D287FD0EC064
:1010C0002FE135E84AE852E4C701B60152D187FF63
:1010D00005C080E090E0A0EAB2E491CE2FE135E8CF
:1010E0004AE852E4C701B6018ED287FD0EC02DEC4E
:1010F0003CEC4EE852E4C701B6013BD187FF05C086
:1011000080E090E0A4EBB2E47ACE2DEC3CEC4EE82B
:1011100052E4C701B60177D287FD0EC02BE734E158
:1011200043E952E4C701B60124D187FF05C080E03E
:1011300090E0A8ECB2E463CE2BE734E143E952E45B
:10114000C701B60160D287FD0EC029E23CE547E940
:1011500052E4C701B6010DD187FF05C080E090E0E1
:10116000ACEDB2E44CCE29E23CE547E952E4C701DC
:10117000B60149D287FD0EC027ED33EA4BE952E4B0
:10118000C701B601F6D087FF05C080E090E0A0EF70
:10119000B2E435CE27ED33EA4BE952E4C701B6019C
:1011A00032D287FD0EC025E83BEE4FE952E4C7017D
:1011B000B601DFD087FF05C080E090E0A2E0B3E495
:1011C0001ECE25E83BEE4FE952E4C701B6011BD223
:1011D00087FD0EC023E333E344EA52E4C701B601BE
:1011E000C8D087FF05C080E090E0ACE0B3E407CE54
:1011F00023E333E344EA52E4C701B60104D287FD96
:101200000EC021EE3AE748EA52E4C701B601B1D078
:1012100087FF05C080E090E0A6E1B3E4F0CD21EEC9
:101220003AE748EA52E4C701B601EDD187FD0EC0A6
:101230002FE832EC4CEA52E4C701B6019AD087FF9E
:1012400005C080E090E0A0E2B3E4D9CD2FE832EC15
:101250004CEA52E4C701B601D6D187FD0EC02DE39A
:101260003AE041EB52E4C701B60183D087FF05C0E5
:1012700080E090E0AAE2B3E4C2CD2DE33AE041EB96
:1012800052E4C701B601BFD187FD38CE20E030E07F
:1012900044EB52E4C701B6016CD087FF2FCE80E04B
:1012A00090E0A4E3B3E4ABCD5058BB27AA270ED0FF
:1012B00070C161D130F066D120F031F49F3F11F45C
:1012C0001EF456C10EF4E095E7FB4CC1E92F72D134
:1012D00080F3BA17620773078407950718F071F453
:1012E0009EF58AC10EF4E0950B2EBA2FA02D0B01AE
:1012F000B90190010C01CA01A0011124FF27591B5B
:1013000099F0593F50F4503E68F11A16F040A22F60
:10131000232F342F4427585FF3CF469537952795D1
:10132000A795F0405395C9F77EF41F16BA0B620BD0
:10133000730B840BBAF09150A1F0FF0FBB1F661F17
:10134000771F881FC2F70EC0BA0F621F731F841F5A
:1013500048F4879577956795B795F7959E3F08F080
:10136000B3CF9395880F08F09927EE0F979587953F
:101370000895D4D008F481E008950CD00AC102D1B8
:1013800040F0F9D030F021F45F3F19F0EBC051117B
:1013900034C1EEC00FD198F39923C9F35523B1F3AB
:1013A000951B550BBB27AA2762177307840738F0D4
:1013B0009F5F5F4F220F331F441FAA1FA9F333D033
:1013C0000E2E3AF0E0E830D091505040E695001CE7
:1013D000CAF729D0FE2F27D0660F771F881FBB1FA3
:1013E000261737074807AB07B0E809F0BB0B802D7D
:1013F000BF01FF2793585F4F2AF09E3F510568F0C9
:10140000B1C0FBC05F3FECF3983EDCF38695779567
:101410006795B795F7959F5FC9F7880F911D9695CA
:10142000879597F90895E1E0660F771F881FBB1F26
:10143000621773078407BA0720F0621B730B840BD3
:10144000BA0BEE1F88F7E0950895BCD088F09F573F
:1014500090F0B92F9927B751A0F0D1F0660F771F00
:10146000881F991F1AF0BA95C9F712C0B13081F0E0
:10147000C3D0B1E00895C0C0672F782F8827B85F28
:1014800039F0B93FCCF3869577956795B395D9F741
:101490003EF490958095709561957F4F8F4F9F4F4B
:1014A0000895E89409C097FB3EF490958095709557
:1014B00061957F4F8F4F9F4F9923A9F0F92F96E9A0
:1014C000BB279395F695879577956795B795F11115
:1014D000F8CFFAF4BB0F11F460FF1BC06F5F7F4FB2
:1014E0008F4F9F4F16C0882311F096E911C07723C4
:1014F00021F09EE8872F762F05C0662371F096E8CD
:10150000862F70E060E02AF09A95660F771F881F9B
:10151000DAF7880F9695879597F90895990F00083F
:10152000550FAA0BE0E8FEEF16161706E807F907B5
:10153000C0F012161306E407F50798F0621B730B50
:10154000840B950B39F40A2661F0232B242B252BD1
:1015500021F408950A2609F4A140A6958FEF811D74
:10156000811D089597F99F6780E870E060E0089515
:101570009FEF80EC089500240A94161617061806AB
:101580000906089500240A94121613061406050687
:101590000895092E0394000C11F4882352F0BB0F18
:1015A00040F4BF2B11F460FF04C06F5F7F4F8F4F7B
:1015B0009F4F089557FD9058440F551F59F05F3FB6
:1015C00071F04795880F97FB991F61F09F3F79F065
:1015D00087950895121613061406551FF2CF4695E7
:1015E000F1DF08C0161617061806991FF1CF869569
:1015F0007105610508940895E894BB27662777274D
:10160000CB0197F908958ADF08F48FEF08950BD086
:10161000C0CFB1DF28F0B6DF18F0952309F0A2CFD4
:10162000A7CF1124EACFC6DFA0F3959FD1F3950F82
:1016300050E0551F629FF001729FBB27F00DB11D56
:10164000639FAA27F00DB11DAA1F649F6627B00DE6
:10165000A11D661F829F2227B00DA11D621F739FCF
:10166000B00DA11D621F839FA00D611D221F749FDD
:101670003327A00D611D231F849F600D211D822F24
:10168000762F6A2F11249F5750408AF0E1F088236B
:101690004AF0EE0FFF1FBB1F661F771F881F915078
:1016A0005040A9F79E3F510570F05CCFA6CF5F3F39
:1016B000ECF3983EDCF3869577956795B795F795AB
:1016C000E7959F5FC1F7FE2B880F911D9695879533
:1016D00097F9089523DF880B990B0895A1E21A2E3C
:1016E000AA1BBB1BFD010DC0AA1FBB1FEE1FFF1FC6
:1016F000A217B307E407F50720F0A21BB30BE40B16
:10170000F50B661F771F881F991F1A9469F760955C
:101710007095809590959B01AC01BD01CF01089516
:10172000EE0FFF1F0590F491E02D0994F894FFCF80
:10173000000040001400540000000000C1019501A9
:10174000CC026B018E017B016C010000000088035C
:101750005F00CC02CB026E616E00696E66006F7630
:101760006600526F7574203D200054656D70203DF9
:02177000200057
:00000001FF
